{
  "contractName": "Tajmahal",
  "abi": [
    {
      "constant": true,
      "inputs": [],
      "name": "tajmahal",
      "outputs": [
        {
          "name": "nameId",
          "type": "string"
        },
        {
          "name": "lctn",
          "type": "string"
        },
        {
          "name": "owner",
          "type": "address"
        },
        {
          "name": "price",
          "type": "uint256"
        }
      ],
      "payable": false,
      "stateMutability": "view",
      "type": "function"
    },
    {
      "constant": false,
      "inputs": [],
      "name": "renounceOwnership",
      "outputs": [],
      "payable": false,
      "stateMutability": "nonpayable",
      "type": "function"
    },
    {
      "constant": false,
      "inputs": [
        {
          "name": "_newOwner",
          "type": "address"
        }
      ],
      "name": "transferOwnership",
      "outputs": [],
      "payable": false,
      "stateMutability": "nonpayable",
      "type": "function"
    },
    {
      "anonymous": false,
      "inputs": [
        {
          "indexed": true,
          "name": "previousOwner",
          "type": "address"
        }
      ],
      "name": "OwnershipRenounced",
      "type": "event"
    },
    {
      "anonymous": false,
      "inputs": [
        {
          "indexed": true,
          "name": "previousOwner",
          "type": "address"
        },
        {
          "indexed": true,
          "name": "newOwner",
          "type": "address"
        }
      ],
      "name": "OwnershipTransferred",
      "type": "event"
    },
    {
      "anonymous": false,
      "inputs": [
        {
          "indexed": true,
          "name": "_from",
          "type": "address"
        },
        {
          "indexed": true,
          "name": "_to",
          "type": "address"
        },
        {
          "indexed": false,
          "name": "_tokenId",
          "type": "uint256"
        }
      ],
      "name": "Transfer",
      "type": "event"
    },
    {
      "anonymous": false,
      "inputs": [
        {
          "indexed": true,
          "name": "_owner",
          "type": "address"
        },
        {
          "indexed": true,
          "name": "_approved",
          "type": "address"
        },
        {
          "indexed": false,
          "name": "_tokenId",
          "type": "uint256"
        }
      ],
      "name": "Approval",
      "type": "event"
    },
    {
      "constant": false,
      "inputs": [],
      "name": "mintToken",
      "outputs": [],
      "payable": false,
      "stateMutability": "nonpayable",
      "type": "function"
    },
    {
      "constant": false,
      "inputs": [],
      "name": "buyTajmahal",
      "outputs": [],
      "payable": true,
      "stateMutability": "payable",
      "type": "function"
    },
    {
      "constant": false,
      "inputs": [
        {
          "name": "_prc",
          "type": "uint256"
        }
      ],
      "name": "setTajmahalPrice",
      "outputs": [],
      "payable": false,
      "stateMutability": "nonpayable",
      "type": "function"
    },
    {
      "constant": false,
      "inputs": [],
      "name": "withdraw",
      "outputs": [],
      "payable": false,
      "stateMutability": "nonpayable",
      "type": "function"
    },
    {
      "constant": true,
      "inputs": [
        {
          "name": "_owner",
          "type": "address"
        }
      ],
      "name": "balanceOf",
      "outputs": [
        {
          "name": "_balance",
          "type": "uint256"
        }
      ],
      "payable": false,
      "stateMutability": "view",
      "type": "function"
    },
    {
      "constant": true,
      "inputs": [
        {
          "name": "_tokenId",
          "type": "uint256"
        }
      ],
      "name": "ownerOf",
      "outputs": [
        {
          "name": "_owner",
          "type": "address"
        }
      ],
      "payable": false,
      "stateMutability": "view",
      "type": "function"
    },
    {
      "constant": false,
      "inputs": [
        {
          "name": "_to",
          "type": "address"
        },
        {
          "name": "_tokenId",
          "type": "uint256"
        }
      ],
      "name": "transfer",
      "outputs": [],
      "payable": false,
      "stateMutability": "nonpayable",
      "type": "function"
    },
    {
      "constant": false,
      "inputs": [
        {
          "name": "_to",
          "type": "address"
        },
        {
          "name": "_tokenId",
          "type": "uint256"
        }
      ],
      "name": "approve",
      "outputs": [],
      "payable": false,
      "stateMutability": "nonpayable",
      "type": "function"
    },
    {
      "constant": false,
      "inputs": [
        {
          "name": "_tokenId",
          "type": "uint256"
        }
      ],
      "name": "takeOwnership",
      "outputs": [],
      "payable": false,
      "stateMutability": "nonpayable",
      "type": "function"
    }
  ],
  "bytecode": "0x60806040526000600155336000806101000a81548173ffffffffffffffffffffffffffffffffffffffff021916908373ffffffffffffffffffffffffffffffffffffffff160217905550610da1806100586000396000f3fe6080604052600436106100a75760003560e01c806370a082311161006457806370a0823114610321578063715018a614610386578063a9059cbb1461039d578063b2e6ceeb146103f8578063d3e0d04214610433578063f2fde38b1461043d576100a7565b8063095ea7b3146100ac5780632004ffd91461010757806321ee585b1461011e57806330473f46146101595780633ccfd60b1461028f5780636352211e146102a6575b600080fd5b3480156100b857600080fd5b50610105600480360360408110156100cf57600080fd5b81019080803573ffffffffffffffffffffffffffffffffffffffff1690602001909291908035906020019092919050505061048e565b005b34801561011357600080fd5b5061011c610492565b005b34801561012a57600080fd5b506101576004803603602081101561014157600080fd5b8101908080359060200190929190505050610602565b005b34801561016557600080fd5b5061016e61066b565b6040518080602001806020018573ffffffffffffffffffffffffffffffffffffffff1673ffffffffffffffffffffffffffffffffffffffff168152602001848152602001838103835287818151815260200191508051906020019080838360005b838110156101ea5780820151818401526020810190506101cf565b50505050905090810190601f1680156102175780820380516001836020036101000a031916815260200191505b50838103825286818151815260200191508051906020019080838360005b83811015610250578082015181840152602081019050610235565b50505050905090810190601f16801561027d5780820380516001836020036101000a031916815260200191505b50965050505050505060405180910390f35b34801561029b57600080fd5b506102a46107d9565b005b3480156102b257600080fd5b506102df600480360360208110156102c957600080fd5b81019080803590602001909291905050506108b3565b604051808273ffffffffffffffffffffffffffffffffffffffff1673ffffffffffffffffffffffffffffffffffffffff16815260200191505060405180910390f35b34801561032d57600080fd5b506103706004803603602081101561034457600080fd5b81019080803573ffffffffffffffffffffffffffffffffffffffff1690602001909291905050506108e1565b6040518082815260200191505060405180910390f35b34801561039257600080fd5b5061039b6108ec565b005b3480156103a957600080fd5b506103f6600480360360408110156103c057600080fd5b81019080803573ffffffffffffffffffffffffffffffffffffffff169060200190929190803590602001909291905050506109ec565b005b34801561040457600080fd5b506104316004803603602081101561041b57600080fd5b8101908080359060200190929190505050610af4565b005b61043b610af7565b005b34801561044957600080fd5b5061048c6004803603602081101561046057600080fd5b81019080803573ffffffffffffffffffffffffffffffffffffffff169060200190929190505050610b57565b005b5050565b6000809054906101000a900473ffffffffffffffffffffffffffffffffffffffff1673ffffffffffffffffffffffffffffffffffffffff163373ffffffffffffffffffffffffffffffffffffffff16146104eb57600080fd5b60018054106104f957600080fd5b6040518060400160405280600981526020017f54616a204d6168616c000000000000000000000000000000000000000000000081525060026000019080519060200190610547929190610cd0565b506040518060400160405280600a81526020017f496e6469612c416772610000000000000000000000000000000000000000000081525060026001019080519060200190610596929190610cd0565b50336002800160006101000a81548173ffffffffffffffffffffffffffffffffffffffff021916908373ffffffffffffffffffffffffffffffffffffffff16021790555060036002600301819055506105fa60018054610bbc90919063ffffffff16565b600181905550565b6002800160009054906101000a900473ffffffffffffffffffffffffffffffffffffffff1673ffffffffffffffffffffffffffffffffffffffff163373ffffffffffffffffffffffffffffffffffffffff161461065e57600080fd5b8060026003018190555050565b6002806000018054600181600116156101000203166002900480601f0160208091040260200160405190810160405280929190818152602001828054600181600116156101000203166002900480156107055780601f106106da57610100808354040283529160200191610705565b820191906000526020600020905b8154815290600101906020018083116106e857829003601f168201915b505050505090806001018054600181600116156101000203166002900480601f0160208091040260200160405190810160405280929190818152602001828054600181600116156101000203166002900480156107a35780601f10610778576101008083540402835291602001916107a3565b820191906000526020600020905b81548152906001019060200180831161078657829003601f168201915b5050505050908060020160009054906101000a900473ffffffffffffffffffffffffffffffffffffffff16908060030154905084565b6000809054906101000a900473ffffffffffffffffffffffffffffffffffffffff1673ffffffffffffffffffffffffffffffffffffffff163373ffffffffffffffffffffffffffffffffffffffff161461083257600080fd5b6000809054906101000a900473ffffffffffffffffffffffffffffffffffffffff1673ffffffffffffffffffffffffffffffffffffffff166108fc3073ffffffffffffffffffffffffffffffffffffffff16319081150290604051600060405180830381858888f193505050501580156108b0573d6000803e3d6000fd5b50565b60006002800160009054906101000a900473ffffffffffffffffffffffffffffffffffffffff169050919050565b600060019050919050565b6000809054906101000a900473ffffffffffffffffffffffffffffffffffffffff1673ffffffffffffffffffffffffffffffffffffffff163373ffffffffffffffffffffffffffffffffffffffff161461094557600080fd5b6000809054906101000a900473ffffffffffffffffffffffffffffffffffffffff1673ffffffffffffffffffffffffffffffffffffffff167ff8df31144d9c2f0f6b59d69b8b98abd5459d07f2742c4df920b25aae33c6482060405160405180910390a260008060006101000a81548173ffffffffffffffffffffffffffffffffffffffff021916908373ffffffffffffffffffffffffffffffffffffffff160217905550565b6002800160009054906101000a900473ffffffffffffffffffffffffffffffffffffffff1673ffffffffffffffffffffffffffffffffffffffff163373ffffffffffffffffffffffffffffffffffffffff1614610a4857600080fd5b816002800160006101000a81548173ffffffffffffffffffffffffffffffffffffffff021916908373ffffffffffffffffffffffffffffffffffffffff1602179055508173ffffffffffffffffffffffffffffffffffffffff163373ffffffffffffffffffffffffffffffffffffffff167fddf252ad1be2c89b69c2b068fc378daa952ba7f163c4a11628f55a4df523b3ef836040518082815260200191505060405180910390a35050565b50565b670de0b6b3a7640000600260030154023414610b1257600080fd5b336002800160006101000a81548173ffffffffffffffffffffffffffffffffffffffff021916908373ffffffffffffffffffffffffffffffffffffffff160217905550565b6000809054906101000a900473ffffffffffffffffffffffffffffffffffffffff1673ffffffffffffffffffffffffffffffffffffffff163373ffffffffffffffffffffffffffffffffffffffff1614610bb057600080fd5b610bb981610bd8565b50565b600080828401905083811015610bce57fe5b8091505092915050565b600073ffffffffffffffffffffffffffffffffffffffff168173ffffffffffffffffffffffffffffffffffffffff161415610c1257600080fd5b8073ffffffffffffffffffffffffffffffffffffffff166000809054906101000a900473ffffffffffffffffffffffffffffffffffffffff1673ffffffffffffffffffffffffffffffffffffffff167f8be0079c531659141344cd1fd0a4f28419497f9722a3daafe3b4186f6b6457e060405160405180910390a3806000806101000a81548173ffffffffffffffffffffffffffffffffffffffff021916908373ffffffffffffffffffffffffffffffffffffffff16021790555050565b828054600181600116156101000203166002900490600052602060002090601f016020900481019282601f10610d1157805160ff1916838001178555610d3f565b82800160010185558215610d3f579182015b82811115610d3e578251825591602001919060010190610d23565b5b509050610d4c9190610d50565b5090565b610d7291905b80821115610d6e576000816000905550600101610d56565b5090565b9056fea165627a7a72305820ed7d280abc80239503f882c0f29f0c1ed73a4e6c701d13b3a3bdaccb6b8a204f0029",
  "source": "\npragma solidity ^0.5;\n\n//author susmit susmit9370@gmail.com\n\n\nimport \"./ownable.sol\";\nimport \"./erc721.sol\";\nimport \"./safemath.sol\";\n\ncontract Tajmahal is ERC721,Ownable {\n    \n    using SafeMath for uint256;\n    \n    struct TajmahalStruct{\n        string nameId;\n        string lctn;      //location of Tajmahal\n        address owner;    //Owner of Tajmahal\n        uint price;       // price of Tajmahal in ether\n    }\n    \n    uint private count = 0;\n    \n    TajmahalStruct public tajmahal;\n    mapping(uint => address) TajApproval;\n\n\n    //only one tajmahal can be created ever    \n    function mintToken() public onlyOwner{\n        require(count < 1);\n        tajmahal.nameId = \"Taj Mahal\";\n        tajmahal.lctn = \"India,Agra\";\n        tajmahal.owner = msg.sender;\n        tajmahal.price = 3;\n        count = count.add(1);\n    }\n    \n    \n    //function to sell tajmahal\n    function buyTajmahal() public payable {\n        require(msg.value == tajmahal.price * 10**18);\n        tajmahal.owner = msg.sender;\n    }\n    \n    function setTajmahalPrice(uint _prc) public {\n        require(msg.sender == tajmahal.owner);\n        tajmahal.price = _prc;\n    } \n    \n    function withdraw() external onlyOwner {\n    owner.transfer(address(this).balance);\n  }\n  \n  function balanceOf(address _owner) public view returns (uint256 _balance){\n      return 1;\n  }\n  \n  function ownerOf(uint256 _tokenId) public view returns (address _owner){\n      return tajmahal.owner;\n  }\n  \n  function transfer(address _to, uint256 _tokenId) public{\n      require( msg.sender == tajmahal.owner );\n      tajmahal.owner = _to;\n      emit Transfer(msg.sender,_to,_tokenId);\n  }\n  \n  //no implementation added \n  function approve(address _to, uint256 _tokenId) public{ \n  }\n  \n  //no implementation added\n  function takeOwnership(uint256 _tokenId) public {\n  }\n    \n\n    \n}",
  "sourcePath": "/home/eric/mojo/contracts/Tahmahal.sol",
  "compiler": {
    "name": "solc",
    "version": "0.5.8+commit.23d335f2.Emscripten.clang"
  },
  "schemaVersion": "3.0.10",
  "updatedAt": "2019-06-04T06:18:36.374Z",
  "devdoc": {
    "methods": {
      "renounceOwnership()": {
        "details": "Allows the current owner to relinquish control of the contract."
      },
      "transferOwnership(address)": {
        "details": "Allows the current owner to transfer control of the contract to a newOwner.",
        "params": {
          "_newOwner": "The address to transfer ownership to."
        }
      }
    }
  },
  "userdoc": {
    "methods": {
      "renounceOwnership()": {
        "notice": "Renouncing to ownership will leave the contract without an owner. It will not be possible to call the functions with the `onlyOwner` modifier anymore."
      }
    }
  }
}